{
  "_format": "hh-sol-artifact-1",
  "contractName": "eyes",
  "sourceName": "contracts/eyes.sol",
  "abi": [
    {
      "inputs": [],
      "stateMutability": "nonpayable",
      "type": "constructor"
    },
    {
      "anonymous": false,
      "inputs": [
        {
          "indexed": true,
          "internalType": "address",
          "name": "owner",
          "type": "address"
        },
        {
          "indexed": true,
          "internalType": "address",
          "name": "approved",
          "type": "address"
        },
        {
          "indexed": true,
          "internalType": "uint256",
          "name": "tokenId",
          "type": "uint256"
        }
      ],
      "name": "Approval",
      "type": "event"
    },
    {
      "anonymous": false,
      "inputs": [
        {
          "indexed": true,
          "internalType": "address",
          "name": "owner",
          "type": "address"
        },
        {
          "indexed": true,
          "internalType": "address",
          "name": "operator",
          "type": "address"
        },
        {
          "indexed": false,
          "internalType": "bool",
          "name": "approved",
          "type": "bool"
        }
      ],
      "name": "ApprovalForAll",
      "type": "event"
    },
    {
      "anonymous": false,
      "inputs": [
        {
          "indexed": true,
          "internalType": "address",
          "name": "previousOwner",
          "type": "address"
        },
        {
          "indexed": true,
          "internalType": "address",
          "name": "newOwner",
          "type": "address"
        }
      ],
      "name": "OwnershipTransferred",
      "type": "event"
    },
    {
      "anonymous": false,
      "inputs": [
        {
          "indexed": true,
          "internalType": "address",
          "name": "from",
          "type": "address"
        },
        {
          "indexed": true,
          "internalType": "address",
          "name": "to",
          "type": "address"
        },
        {
          "indexed": true,
          "internalType": "uint256",
          "name": "tokenId",
          "type": "uint256"
        }
      ],
      "name": "Transfer",
      "type": "event"
    },
    {
      "inputs": [
        {
          "internalType": "address",
          "name": "to",
          "type": "address"
        },
        {
          "internalType": "uint256",
          "name": "tokenId",
          "type": "uint256"
        }
      ],
      "name": "approve",
      "outputs": [],
      "stateMutability": "nonpayable",
      "type": "function"
    },
    {
      "inputs": [
        {
          "internalType": "address",
          "name": "owner",
          "type": "address"
        }
      ],
      "name": "balanceOf",
      "outputs": [
        {
          "internalType": "uint256",
          "name": "",
          "type": "uint256"
        }
      ],
      "stateMutability": "view",
      "type": "function"
    },
    {
      "inputs": [],
      "name": "currentTokenId",
      "outputs": [
        {
          "internalType": "uint256",
          "name": "",
          "type": "uint256"
        }
      ],
      "stateMutability": "view",
      "type": "function"
    },
    {
      "inputs": [
        {
          "internalType": "uint256",
          "name": "tokenId",
          "type": "uint256"
        }
      ],
      "name": "getApproved",
      "outputs": [
        {
          "internalType": "address",
          "name": "",
          "type": "address"
        }
      ],
      "stateMutability": "view",
      "type": "function"
    },
    {
      "inputs": [
        {
          "internalType": "address",
          "name": "owner",
          "type": "address"
        },
        {
          "internalType": "address",
          "name": "operator",
          "type": "address"
        }
      ],
      "name": "isApprovedForAll",
      "outputs": [
        {
          "internalType": "bool",
          "name": "",
          "type": "bool"
        }
      ],
      "stateMutability": "view",
      "type": "function"
    },
    {
      "inputs": [],
      "name": "maxQuantity",
      "outputs": [
        {
          "internalType": "uint256",
          "name": "",
          "type": "uint256"
        }
      ],
      "stateMutability": "view",
      "type": "function"
    },
    {
      "inputs": [
        {
          "internalType": "uint256",
          "name": "quantity",
          "type": "uint256"
        }
      ],
      "name": "mintNFT",
      "outputs": [],
      "stateMutability": "nonpayable",
      "type": "function"
    },
    {
      "inputs": [],
      "name": "name",
      "outputs": [
        {
          "internalType": "string",
          "name": "",
          "type": "string"
        }
      ],
      "stateMutability": "view",
      "type": "function"
    },
    {
      "inputs": [
        {
          "internalType": "uint256",
          "name": "",
          "type": "uint256"
        }
      ],
      "name": "nfts",
      "outputs": [
        {
          "internalType": "string",
          "name": "name",
          "type": "string"
        },
        {
          "internalType": "string",
          "name": "description",
          "type": "string"
        },
        {
          "internalType": "string",
          "name": "image",
          "type": "string"
        }
      ],
      "stateMutability": "view",
      "type": "function"
    },
    {
      "inputs": [],
      "name": "owner",
      "outputs": [
        {
          "internalType": "address",
          "name": "",
          "type": "address"
        }
      ],
      "stateMutability": "view",
      "type": "function"
    },
    {
      "inputs": [
        {
          "internalType": "uint256",
          "name": "tokenId",
          "type": "uint256"
        }
      ],
      "name": "ownerOf",
      "outputs": [
        {
          "internalType": "address",
          "name": "",
          "type": "address"
        }
      ],
      "stateMutability": "view",
      "type": "function"
    },
    {
      "inputs": [
        {
          "internalType": "uint256",
          "name": "tokenId",
          "type": "uint256"
        }
      ],
      "name": "promptDescription",
      "outputs": [
        {
          "internalType": "string",
          "name": "",
          "type": "string"
        }
      ],
      "stateMutability": "view",
      "type": "function"
    },
    {
      "inputs": [],
      "name": "renounceOwnership",
      "outputs": [],
      "stateMutability": "nonpayable",
      "type": "function"
    },
    {
      "inputs": [
        {
          "internalType": "address",
          "name": "from",
          "type": "address"
        },
        {
          "internalType": "address",
          "name": "to",
          "type": "address"
        },
        {
          "internalType": "uint256",
          "name": "tokenId",
          "type": "uint256"
        }
      ],
      "name": "safeTransferFrom",
      "outputs": [],
      "stateMutability": "nonpayable",
      "type": "function"
    },
    {
      "inputs": [
        {
          "internalType": "address",
          "name": "from",
          "type": "address"
        },
        {
          "internalType": "address",
          "name": "to",
          "type": "address"
        },
        {
          "internalType": "uint256",
          "name": "tokenId",
          "type": "uint256"
        },
        {
          "internalType": "bytes",
          "name": "data",
          "type": "bytes"
        }
      ],
      "name": "safeTransferFrom",
      "outputs": [],
      "stateMutability": "nonpayable",
      "type": "function"
    },
    {
      "inputs": [
        {
          "internalType": "address",
          "name": "operator",
          "type": "address"
        },
        {
          "internalType": "bool",
          "name": "approved",
          "type": "bool"
        }
      ],
      "name": "setApprovalForAll",
      "outputs": [],
      "stateMutability": "nonpayable",
      "type": "function"
    },
    {
      "inputs": [
        {
          "internalType": "bytes4",
          "name": "interfaceId",
          "type": "bytes4"
        }
      ],
      "name": "supportsInterface",
      "outputs": [
        {
          "internalType": "bool",
          "name": "",
          "type": "bool"
        }
      ],
      "stateMutability": "view",
      "type": "function"
    },
    {
      "inputs": [],
      "name": "symbol",
      "outputs": [
        {
          "internalType": "string",
          "name": "",
          "type": "string"
        }
      ],
      "stateMutability": "view",
      "type": "function"
    },
    {
      "inputs": [
        {
          "internalType": "uint256",
          "name": "index",
          "type": "uint256"
        }
      ],
      "name": "tokenByIndex",
      "outputs": [
        {
          "internalType": "uint256",
          "name": "",
          "type": "uint256"
        }
      ],
      "stateMutability": "view",
      "type": "function"
    },
    {
      "inputs": [
        {
          "internalType": "address",
          "name": "owner",
          "type": "address"
        },
        {
          "internalType": "uint256",
          "name": "index",
          "type": "uint256"
        }
      ],
      "name": "tokenOfOwnerByIndex",
      "outputs": [
        {
          "internalType": "uint256",
          "name": "",
          "type": "uint256"
        }
      ],
      "stateMutability": "view",
      "type": "function"
    },
    {
      "inputs": [
        {
          "internalType": "uint256",
          "name": "tokenId",
          "type": "uint256"
        }
      ],
      "name": "tokenURI",
      "outputs": [
        {
          "internalType": "string",
          "name": "",
          "type": "string"
        }
      ],
      "stateMutability": "view",
      "type": "function"
    },
    {
      "inputs": [],
      "name": "totalSupply",
      "outputs": [
        {
          "internalType": "uint256",
          "name": "",
          "type": "uint256"
        }
      ],
      "stateMutability": "view",
      "type": "function"
    },
    {
      "inputs": [
        {
          "internalType": "address",
          "name": "from",
          "type": "address"
        },
        {
          "internalType": "address",
          "name": "to",
          "type": "address"
        },
        {
          "internalType": "uint256",
          "name": "tokenId",
          "type": "uint256"
        }
      ],
      "name": "transferFrom",
      "outputs": [],
      "stateMutability": "nonpayable",
      "type": "function"
    },
    {
      "inputs": [
        {
          "internalType": "address",
          "name": "newOwner",
          "type": "address"
        }
      ],
      "name": "transferOwnership",
      "outputs": [],
      "stateMutability": "nonpayable",
      "type": "function"
    }
  ],
  "bytecode": "0x60806040526005600c556000600d553480156200001b57600080fd5b506040518060400160405280600f81526020017f4d794e4654436f6c6c656374696f6e00000000000000000000000000000000008152506040518060400160405280600381526020017f4d4e43000000000000000000000000000000000000000000000000000000000081525081600090816200009991906200097b565b508060019081620000ab91906200097b565b505050620000ce620000c26200063360201b60201c565b6200063b60201b60201c565b600b60405180606001604052806040518060400160405280600181526020017f300000000000000000000000000000000000000000000000000000000000000081525081526020016040518060400160405280601381526020017f4d616e792042656175746966756c20457965730000000000000000000000000081525081526020016040518060600160405280602e815260200162004148602e913981525090806001815401808255809150506001900390600052602060002090600302016000909190919091506000820151816000019081620001ae91906200097b565b506020820151816001019081620001c691906200097b565b506040820151816002019081620001de91906200097b565b505050600b60405180606001604052806040518060400160405280600181526020017f310000000000000000000000000000000000000000000000000000000000000081525081526020016040518060400160405280601381526020017f4d616e792042656175746966756c20457965730000000000000000000000000081525081526020016040518060600160405280602e815260200162004148602e913981525090806001815401808255809150506001900390600052602060002090600302016000909190919091506000820151816000019081620002c191906200097b565b506020820151816001019081620002d991906200097b565b506040820151816002019081620002f191906200097b565b505050600b60405180606001604052806040518060400160405280600181526020017f320000000000000000000000000000000000000000000000000000000000000081525081526020016040518060400160405280601381526020017f4d616e792042656175746966756c20457965730000000000000000000000000081525081526020016040518060600160405280602e815260200162004148602e913981525090806001815401808255809150506001900390600052602060002090600302016000909190919091506000820151816000019081620003d491906200097b565b506020820151816001019081620003ec91906200097b565b5060408201518160020190816200040491906200097b565b505050600b60405180606001604052806040518060400160405280600181526020017f330000000000000000000000000000000000000000000000000000000000000081525081526020016040518060400160405280601381526020017f4d616e792042656175746966756c20457965730000000000000000000000000081525081526020016040518060600160405280602e815260200162004148602e913981525090806001815401808255809150506001900390600052602060002090600302016000909190919091506000820151816000019081620004e791906200097b565b506020820151816001019081620004ff91906200097b565b5060408201518160020190816200051791906200097b565b505050600b60405180606001604052806040518060400160405280600181526020017f340000000000000000000000000000000000000000000000000000000000000081525081526020016040518060400160405280601381526020017f4d616e792042656175746966756c20457965730000000000000000000000000081525081526020016040518060600160405280602e815260200162004148602e913981525090806001815401808255809150506001900390600052602060002090600302016000909190919091506000820151816000019081620005fa91906200097b565b5060208201518160010190816200061291906200097b565b5060408201518160020190816200062a91906200097b565b50505062000a62565b600033905090565b6000600a60009054906101000a900473ffffffffffffffffffffffffffffffffffffffff16905081600a60006101000a81548173ffffffffffffffffffffffffffffffffffffffff021916908373ffffffffffffffffffffffffffffffffffffffff1602179055508173ffffffffffffffffffffffffffffffffffffffff168173ffffffffffffffffffffffffffffffffffffffff167f8be0079c531659141344cd1fd0a4f28419497f9722a3daafe3b4186f6b6457e060405160405180910390a35050565b600081519050919050565b7f4e487b7100000000000000000000000000000000000000000000000000000000600052604160045260246000fd5b7f4e487b7100000000000000000000000000000000000000000000000000000000600052602260045260246000fd5b600060028204905060018216806200078357607f821691505b6020821081036200079957620007986200073b565b5b50919050565b60008190508160005260206000209050919050565b60006020601f8301049050919050565b600082821b905092915050565b600060088302620008037fffffffffffffffffffffffffffffffffffffffffffffffffffffffffffffffff82620007c4565b6200080f8683620007c4565b95508019841693508086168417925050509392505050565b6000819050919050565b6000819050919050565b60006200085c62000856620008508462000827565b62000831565b62000827565b9050919050565b6000819050919050565b62000878836200083b565b62000890620008878262000863565b848454620007d1565b825550505050565b600090565b620008a762000898565b620008b48184846200086d565b505050565b5b81811015620008dc57620008d06000826200089d565b600181019050620008ba565b5050565b601f8211156200092b57620008f5816200079f565b6200090084620007b4565b8101602085101562000910578190505b620009286200091f85620007b4565b830182620008b9565b50505b505050565b600082821c905092915050565b6000620009506000198460080262000930565b1980831691505092915050565b60006200096b83836200093d565b9150826002028217905092915050565b620009868262000701565b67ffffffffffffffff811115620009a257620009a16200070c565b5b620009ae82546200076a565b620009bb828285620008e0565b600060209050601f831160018114620009f35760008415620009de578287015190505b620009ea85826200095d565b86555062000a5a565b601f19841662000a03866200079f565b60005b8281101562000a2d5784890151825560018201915060208501945060208101905062000a06565b8683101562000a4d578489015162000a49601f8916826200093d565b8355505b6001600288020188555050505b505050505050565b6136d68062000a726000396000f3fe608060405234801561001057600080fd5b50600436106101575760003560e01c806370a08231116100c3578063a22cb4651161007c578063a22cb465146103ee578063b88d4fde1461040a578063c87b56dd14610426578063e640cf7d14610456578063e985e9c514610474578063f2fde38b146104a457610157565b806370a082311461032c578063715018a61461035c5780638da5cb5b146103665780638e5a86381461038457806392642744146103b457806395d89b41146103d057610157565b806323b872dd1161011557806323b872dd14610232578063265aa6211461024e5780632f745c591461028057806342842e0e146102b05780634f6ccce7146102cc5780636352211e146102fc57610157565b80629a9b7b1461015c57806301ffc9a71461017a57806306fdde03146101aa578063081812fc146101c8578063095ea7b3146101f857806318160ddd14610214575b600080fd5b6101646104c0565b604051610171919061246a565b60405180910390f35b610194600480360381019061018f91906124f1565b6104c6565b6040516101a19190612539565b60405180910390f35b6101b2610540565b6040516101bf91906125e4565b60405180910390f35b6101e260048036038101906101dd9190612632565b6105d2565b6040516101ef91906126a0565b60405180910390f35b610212600480360381019061020d91906126e7565b610618565b005b61021c61072f565b604051610229919061246a565b60405180910390f35b61024c60048036038101906102479190612727565b61073c565b005b61026860048036038101906102639190612632565b61079c565b6040516102779392919061277a565b60405180910390f35b61029a600480360381019061029591906126e7565b61096e565b6040516102a7919061246a565b60405180910390f35b6102ca60048036038101906102c59190612727565b610a13565b005b6102e660048036038101906102e19190612632565b610a33565b6040516102f3919061246a565b60405180910390f35b61031660048036038101906103119190612632565b610aa4565b60405161032391906126a0565b60405180910390f35b610346600480360381019061034191906127c6565b610b2a565b604051610353919061246a565b60405180910390f35b610364610be1565b005b61036e610bf5565b60405161037b91906126a0565b60405180910390f35b61039e60048036038101906103999190612632565b610c1f565b6040516103ab91906125e4565b60405180910390f35b6103ce60048036038101906103c99190612632565b610d1d565b005b6103d8610dbd565b6040516103e591906125e4565b60405180910390f35b6104086004803603810190610403919061281f565b610e4f565b005b610424600480360381019061041f9190612994565b610e65565b005b610440600480360381019061043b9190612632565b610ec7565b60405161044d91906125e4565b60405180910390f35b61045e610f2f565b60405161046b919061246a565b60405180910390f35b61048e60048036038101906104899190612a17565b610f35565b60405161049b9190612539565b60405180910390f35b6104be60048036038101906104b991906127c6565b610fc9565b005b600d5481565b60007f780e9d63000000000000000000000000000000000000000000000000000000007bffffffffffffffffffffffffffffffffffffffffffffffffffffffff1916827bffffffffffffffffffffffffffffffffffffffffffffffffffffffff1916148061053957506105388261104c565b5b9050919050565b60606000805461054f90612a86565b80601f016020809104026020016040519081016040528092919081815260200182805461057b90612a86565b80156105c85780601f1061059d576101008083540402835291602001916105c8565b820191906000526020600020905b8154815290600101906020018083116105ab57829003601f168201915b5050505050905090565b60006105dd8261112e565b6004600083815260200190815260200160002060009054906101000a900473ffffffffffffffffffffffffffffffffffffffff169050919050565b600061062382610aa4565b90508073ffffffffffffffffffffffffffffffffffffffff168373ffffffffffffffffffffffffffffffffffffffff1603610693576040517f08c379a000000000000000000000000000000000000000000000000000000000815260040161068a90612b29565b60405180910390fd5b8073ffffffffffffffffffffffffffffffffffffffff166106b2611179565b73ffffffffffffffffffffffffffffffffffffffff1614806106e157506106e0816106db611179565b610f35565b5b610720576040517f08c379a000000000000000000000000000000000000000000000000000000000815260040161071790612bbb565b60405180910390fd5b61072a8383611181565b505050565b6000600880549050905090565b61074d610747611179565b8261123a565b61078c576040517f08c379a000000000000000000000000000000000000000000000000000000000815260040161078390612c4d565b60405180910390fd5b6107978383836112cf565b505050565b600b81815481106107ac57600080fd5b90600052602060002090600302016000915090508060000180546107cf90612a86565b80601f01602080910402602001604051908101604052809291908181526020018280546107fb90612a86565b80156108485780601f1061081d57610100808354040283529160200191610848565b820191906000526020600020905b81548152906001019060200180831161082b57829003601f168201915b50505050509080600101805461085d90612a86565b80601f016020809104026020016040519081016040528092919081815260200182805461088990612a86565b80156108d65780601f106108ab576101008083540402835291602001916108d6565b820191906000526020600020905b8154815290600101906020018083116108b957829003601f168201915b5050505050908060020180546108eb90612a86565b80601f016020809104026020016040519081016040528092919081815260200182805461091790612a86565b80156109645780601f1061093957610100808354040283529160200191610964565b820191906000526020600020905b81548152906001019060200180831161094757829003601f168201915b5050505050905083565b600061097983610b2a565b82106109ba576040517f08c379a00000000000000000000000000000000000000000000000000000000081526004016109b190612cdf565b60405180910390fd5b600660008473ffffffffffffffffffffffffffffffffffffffff1673ffffffffffffffffffffffffffffffffffffffff168152602001908152602001600020600083815260200190815260200160002054905092915050565b610a2e83838360405180602001604052806000815250610e65565b505050565b6000610a3d61072f565b8210610a7e576040517f08c379a0000000000000000000000000000000000000000000000000000000008152600401610a7590612d71565b60405180910390fd5b60088281548110610a9257610a91612d91565b5b90600052602060002001549050919050565b600080610ab0836115c8565b9050600073ffffffffffffffffffffffffffffffffffffffff168173ffffffffffffffffffffffffffffffffffffffff1603610b21576040517f08c379a0000000000000000000000000000000000000000000000000000000008152600401610b1890612e0c565b60405180910390fd5b80915050919050565b60008073ffffffffffffffffffffffffffffffffffffffff168273ffffffffffffffffffffffffffffffffffffffff1603610b9a576040517f08c379a0000000000000000000000000000000000000000000000000000000008152600401610b9190612e9e565b60405180910390fd5b600360008373ffffffffffffffffffffffffffffffffffffffff1673ffffffffffffffffffffffffffffffffffffffff168152602001908152602001600020549050919050565b610be9611605565b610bf36000611683565b565b6000600a60009054906101000a900473ffffffffffffffffffffffffffffffffffffffff16905090565b6060600b805490508210610c68576040517f08c379a0000000000000000000000000000000000000000000000000000000008152600401610c5f90612f0a565b60405180910390fd5b600b8281548110610c7c57610c7b612d91565b5b90600052602060002090600302016001018054610c9890612a86565b80601f0160208091040260200160405190810160405280929190818152602001828054610cc490612a86565b8015610d115780601f10610ce657610100808354040283529160200191610d11565b820191906000526020600020905b815481529060010190602001808311610cf457829003601f168201915b50505050509050919050565b610d25611605565b600c5481600d54610d369190612f59565b1115610d77576040517f08c379a0000000000000000000000000000000000000000000000000000000008152600401610d6e90612fd9565b60405180910390fd5b60005b81811015610db957610d8e33600d54611749565b600d6000815480929190610da190612ff9565b91905055508080610db190612ff9565b915050610d7a565b5050565b606060018054610dcc90612a86565b80601f0160208091040260200160405190810160405280929190818152602001828054610df890612a86565b8015610e455780601f10610e1a57610100808354040283529160200191610e45565b820191906000526020600020905b815481529060010190602001808311610e2857829003601f168201915b5050505050905090565b610e61610e5a611179565b8383611966565b5050565b610e76610e70611179565b8361123a565b610eb5576040517f08c379a0000000000000000000000000000000000000000000000000000000008152600401610eac90612c4d565b60405180910390fd5b610ec184848484611ad2565b50505050565b6060610ed28261112e565b6000610edc611b2e565b90506000815111610efc5760405180602001604052806000815250610f27565b80610f0684611b6b565b604051602001610f1792919061307d565b6040516020818303038152906040525b915050919050565b600c5481565b6000600560008473ffffffffffffffffffffffffffffffffffffffff1673ffffffffffffffffffffffffffffffffffffffff16815260200190815260200160002060008373ffffffffffffffffffffffffffffffffffffffff1673ffffffffffffffffffffffffffffffffffffffff16815260200190815260200160002060009054906101000a900460ff16905092915050565b610fd1611605565b600073ffffffffffffffffffffffffffffffffffffffff168173ffffffffffffffffffffffffffffffffffffffff1603611040576040517f08c379a000000000000000000000000000000000000000000000000000000000815260040161103790613113565b60405180910390fd5b61104981611683565b50565b60007f80ac58cd000000000000000000000000000000000000000000000000000000007bffffffffffffffffffffffffffffffffffffffffffffffffffffffff1916827bffffffffffffffffffffffffffffffffffffffffffffffffffffffff1916148061111757507f5b5e139f000000000000000000000000000000000000000000000000000000007bffffffffffffffffffffffffffffffffffffffffffffffffffffffff1916827bffffffffffffffffffffffffffffffffffffffffffffffffffffffff1916145b80611127575061112682611c39565b5b9050919050565b61113781611ca3565b611176576040517f08c379a000000000000000000000000000000000000000000000000000000000815260040161116d90612e0c565b60405180910390fd5b50565b600033905090565b816004600083815260200190815260200160002060006101000a81548173ffffffffffffffffffffffffffffffffffffffff021916908373ffffffffffffffffffffffffffffffffffffffff160217905550808273ffffffffffffffffffffffffffffffffffffffff166111f483610aa4565b73ffffffffffffffffffffffffffffffffffffffff167f8c5be1e5ebec7d5bd14f71427d1e84f3dd0314c0f7b2291e5b200ac8c7c3b92560405160405180910390a45050565b60008061124683610aa4565b90508073ffffffffffffffffffffffffffffffffffffffff168473ffffffffffffffffffffffffffffffffffffffff16148061128857506112878185610f35565b5b806112c657508373ffffffffffffffffffffffffffffffffffffffff166112ae846105d2565b73ffffffffffffffffffffffffffffffffffffffff16145b91505092915050565b8273ffffffffffffffffffffffffffffffffffffffff166112ef82610aa4565b73ffffffffffffffffffffffffffffffffffffffff1614611345576040517f08c379a000000000000000000000000000000000000000000000000000000000815260040161133c906131a5565b60405180910390fd5b600073ffffffffffffffffffffffffffffffffffffffff168273ffffffffffffffffffffffffffffffffffffffff16036113b4576040517f08c379a00000000000000000000000000000000000000000000000000000000081526004016113ab90613237565b60405180910390fd5b6113c18383836001611ce4565b8273ffffffffffffffffffffffffffffffffffffffff166113e182610aa4565b73ffffffffffffffffffffffffffffffffffffffff1614611437576040517f08c379a000000000000000000000000000000000000000000000000000000000815260040161142e906131a5565b60405180910390fd5b6004600082815260200190815260200160002060006101000a81549073ffffffffffffffffffffffffffffffffffffffff02191690556001600360008573ffffffffffffffffffffffffffffffffffffffff1673ffffffffffffffffffffffffffffffffffffffff168152602001908152602001600020600082825403925050819055506001600360008473ffffffffffffffffffffffffffffffffffffffff1673ffffffffffffffffffffffffffffffffffffffff16815260200190815260200160002060008282540192505081905550816002600083815260200190815260200160002060006101000a81548173ffffffffffffffffffffffffffffffffffffffff021916908373ffffffffffffffffffffffffffffffffffffffff160217905550808273ffffffffffffffffffffffffffffffffffffffff168473ffffffffffffffffffffffffffffffffffffffff167fddf252ad1be2c89b69c2b068fc378daa952ba7f163c4a11628f55a4df523b3ef60405160405180910390a46115c38383836001611e42565b505050565b60006002600083815260200190815260200160002060009054906101000a900473ffffffffffffffffffffffffffffffffffffffff169050919050565b61160d611179565b73ffffffffffffffffffffffffffffffffffffffff1661162b610bf5565b73ffffffffffffffffffffffffffffffffffffffff1614611681576040517f08c379a0000000000000000000000000000000000000000000000000000000008152600401611678906132a3565b60405180910390fd5b565b6000600a60009054906101000a900473ffffffffffffffffffffffffffffffffffffffff16905081600a60006101000a81548173ffffffffffffffffffffffffffffffffffffffff021916908373ffffffffffffffffffffffffffffffffffffffff1602179055508173ffffffffffffffffffffffffffffffffffffffff168173ffffffffffffffffffffffffffffffffffffffff167f8be0079c531659141344cd1fd0a4f28419497f9722a3daafe3b4186f6b6457e060405160405180910390a35050565b600073ffffffffffffffffffffffffffffffffffffffff168273ffffffffffffffffffffffffffffffffffffffff16036117b8576040517f08c379a00000000000000000000000000000000000000000000000000000000081526004016117af9061330f565b60405180910390fd5b6117c181611ca3565b15611801576040517f08c379a00000000000000000000000000000000000000000000000000000000081526004016117f89061337b565b60405180910390fd5b61180f600083836001611ce4565b61181881611ca3565b15611858576040517f08c379a000000000000000000000000000000000000000000000000000000000815260040161184f9061337b565b60405180910390fd5b6001600360008473ffffffffffffffffffffffffffffffffffffffff1673ffffffffffffffffffffffffffffffffffffffff16815260200190815260200160002060008282540192505081905550816002600083815260200190815260200160002060006101000a81548173ffffffffffffffffffffffffffffffffffffffff021916908373ffffffffffffffffffffffffffffffffffffffff160217905550808273ffffffffffffffffffffffffffffffffffffffff16600073ffffffffffffffffffffffffffffffffffffffff167fddf252ad1be2c89b69c2b068fc378daa952ba7f163c4a11628f55a4df523b3ef60405160405180910390a4611962600083836001611e42565b5050565b8173ffffffffffffffffffffffffffffffffffffffff168373ffffffffffffffffffffffffffffffffffffffff16036119d4576040517f08c379a00000000000000000000000000000000000000000000000000000000081526004016119cb906133e7565b60405180910390fd5b80600560008573ffffffffffffffffffffffffffffffffffffffff1673ffffffffffffffffffffffffffffffffffffffff16815260200190815260200160002060008473ffffffffffffffffffffffffffffffffffffffff1673ffffffffffffffffffffffffffffffffffffffff16815260200190815260200160002060006101000a81548160ff0219169083151502179055508173ffffffffffffffffffffffffffffffffffffffff168373ffffffffffffffffffffffffffffffffffffffff167f17307eab39ab6107e8899845ad3d59bd9653f200f220920489ca2b5937696c3183604051611ac59190612539565b60405180910390a3505050565b611add8484846112cf565b611ae984848484611e48565b611b28576040517f08c379a0000000000000000000000000000000000000000000000000000000008152600401611b1f90613479565b60405180910390fd5b50505050565b60606040518060400160405280601d81526020017f68747470733a2f2f676174657761792e697066732e696f2f697066732f000000815250905090565b606060006001611b7a84611fcf565b01905060008167ffffffffffffffff811115611b9957611b98612869565b5b6040519080825280601f01601f191660200182016040528015611bcb5781602001600182028036833780820191505090505b509050600082602001820190505b600115611c2e578080600190039150507f3031323334353637383961626364656600000000000000000000000000000000600a86061a8153600a8581611c2257611c21613499565b5b04945060008503611bd9575b819350505050919050565b60007f01ffc9a7000000000000000000000000000000000000000000000000000000007bffffffffffffffffffffffffffffffffffffffffffffffffffffffff1916827bffffffffffffffffffffffffffffffffffffffffffffffffffffffff1916149050919050565b60008073ffffffffffffffffffffffffffffffffffffffff16611cc5836115c8565b73ffffffffffffffffffffffffffffffffffffffff1614159050919050565b611cf084848484612122565b6001811115611d34576040517f08c379a0000000000000000000000000000000000000000000000000000000008152600401611d2b9061353a565b60405180910390fd5b6000829050600073ffffffffffffffffffffffffffffffffffffffff168573ffffffffffffffffffffffffffffffffffffffff1603611d7b57611d7681612128565b611dba565b8373ffffffffffffffffffffffffffffffffffffffff168573ffffffffffffffffffffffffffffffffffffffff1614611db957611db88582612171565b5b5b600073ffffffffffffffffffffffffffffffffffffffff168473ffffffffffffffffffffffffffffffffffffffff1603611dfc57611df7816122de565b611e3b565b8473ffffffffffffffffffffffffffffffffffffffff168473ffffffffffffffffffffffffffffffffffffffff1614611e3a57611e3984826123af565b5b5b5050505050565b50505050565b6000611e698473ffffffffffffffffffffffffffffffffffffffff1661242e565b15611fc2578373ffffffffffffffffffffffffffffffffffffffff1663150b7a02611e92611179565b8786866040518563ffffffff1660e01b8152600401611eb494939291906135af565b6020604051808303816000875af1925050508015611ef057506040513d601f19601f82011682018060405250810190611eed9190613610565b60015b611f72573d8060008114611f20576040519150601f19603f3d011682016040523d82523d6000602084013e611f25565b606091505b506000815103611f6a576040517f08c379a0000000000000000000000000000000000000000000000000000000008152600401611f6190613479565b60405180910390fd5b805181602001fd5b63150b7a0260e01b7bffffffffffffffffffffffffffffffffffffffffffffffffffffffff1916817bffffffffffffffffffffffffffffffffffffffffffffffffffffffff191614915050611fc7565b600190505b949350505050565b600080600090507a184f03e93ff9f4daa797ed6e38ed64bf6a1f010000000000000000831061202d577a184f03e93ff9f4daa797ed6e38ed64bf6a1f010000000000000000838161202357612022613499565b5b0492506040810190505b6d04ee2d6d415b85acef8100000000831061206a576d04ee2d6d415b85acef810000000083816120605761205f613499565b5b0492506020810190505b662386f26fc10000831061209957662386f26fc10000838161208f5761208e613499565b5b0492506010810190505b6305f5e10083106120c2576305f5e10083816120b8576120b7613499565b5b0492506008810190505b61271083106120e75761271083816120dd576120dc613499565b5b0492506004810190505b6064831061210a5760648381612100576120ff613499565b5b0492506002810190505b600a8310612119576001810190505b80915050919050565b50505050565b6008805490506009600083815260200190815260200160002081905550600881908060018154018082558091505060019003906000526020600020016000909190919091505550565b6000600161217e84610b2a565b612188919061363d565b905060006007600084815260200190815260200160002054905081811461226d576000600660008673ffffffffffffffffffffffffffffffffffffffff1673ffffffffffffffffffffffffffffffffffffffff168152602001908152602001600020600084815260200190815260200160002054905080600660008773ffffffffffffffffffffffffffffffffffffffff1673ffffffffffffffffffffffffffffffffffffffff168152602001908152602001600020600084815260200190815260200160002081905550816007600083815260200190815260200160002081905550505b6007600084815260200190815260200160002060009055600660008573ffffffffffffffffffffffffffffffffffffffff1673ffffffffffffffffffffffffffffffffffffffff16815260200190815260200160002060008381526020019081526020016000206000905550505050565b600060016008805490506122f2919061363d565b905060006009600084815260200190815260200160002054905060006008838154811061232257612321612d91565b5b90600052602060002001549050806008838154811061234457612343612d91565b5b90600052602060002001819055508160096000838152602001908152602001600020819055506009600085815260200190815260200160002060009055600880548061239357612392613671565b5b6001900381819060005260206000200160009055905550505050565b60006123ba83610b2a565b905081600660008573ffffffffffffffffffffffffffffffffffffffff1673ffffffffffffffffffffffffffffffffffffffff168152602001908152602001600020600083815260200190815260200160002081905550806007600084815260200190815260200160002081905550505050565b6000808273ffffffffffffffffffffffffffffffffffffffff163b119050919050565b6000819050919050565b61246481612451565b82525050565b600060208201905061247f600083018461245b565b92915050565b6000604051905090565b600080fd5b600080fd5b60007fffffffff0000000000000000000000000000000000000000000000000000000082169050919050565b6124ce81612499565b81146124d957600080fd5b50565b6000813590506124eb816124c5565b92915050565b6000602082840312156125075761250661248f565b5b6000612515848285016124dc565b91505092915050565b60008115159050919050565b6125338161251e565b82525050565b600060208201905061254e600083018461252a565b92915050565b600081519050919050565b600082825260208201905092915050565b60005b8381101561258e578082015181840152602081019050612573565b60008484015250505050565b6000601f19601f8301169050919050565b60006125b682612554565b6125c0818561255f565b93506125d0818560208601612570565b6125d98161259a565b840191505092915050565b600060208201905081810360008301526125fe81846125ab565b905092915050565b61260f81612451565b811461261a57600080fd5b50565b60008135905061262c81612606565b92915050565b6000602082840312156126485761264761248f565b5b60006126568482850161261d565b91505092915050565b600073ffffffffffffffffffffffffffffffffffffffff82169050919050565b600061268a8261265f565b9050919050565b61269a8161267f565b82525050565b60006020820190506126b56000830184612691565b92915050565b6126c48161267f565b81146126cf57600080fd5b50565b6000813590506126e1816126bb565b92915050565b600080604083850312156126fe576126fd61248f565b5b600061270c858286016126d2565b925050602061271d8582860161261d565b9150509250929050565b6000806000606084860312156127405761273f61248f565b5b600061274e868287016126d2565b935050602061275f868287016126d2565b92505060406127708682870161261d565b9150509250925092565b6000606082019050818103600083015261279481866125ab565b905081810360208301526127a881856125ab565b905081810360408301526127bc81846125ab565b9050949350505050565b6000602082840312156127dc576127db61248f565b5b60006127ea848285016126d2565b91505092915050565b6127fc8161251e565b811461280757600080fd5b50565b600081359050612819816127f3565b92915050565b600080604083850312156128365761283561248f565b5b6000612844858286016126d2565b92505060206128558582860161280a565b9150509250929050565b600080fd5b600080fd5b7f4e487b7100000000000000000000000000000000000000000000000000000000600052604160045260246000fd5b6128a18261259a565b810181811067ffffffffffffffff821117156128c0576128bf612869565b5b80604052505050565b60006128d3612485565b90506128df8282612898565b919050565b600067ffffffffffffffff8211156128ff576128fe612869565b5b6129088261259a565b9050602081019050919050565b82818337600083830152505050565b6000612937612932846128e4565b6128c9565b90508281526020810184848401111561295357612952612864565b5b61295e848285612915565b509392505050565b600082601f83011261297b5761297a61285f565b5b813561298b848260208601612924565b91505092915050565b600080600080608085870312156129ae576129ad61248f565b5b60006129bc878288016126d2565b94505060206129cd878288016126d2565b93505060406129de8782880161261d565b925050606085013567ffffffffffffffff8111156129ff576129fe612494565b5b612a0b87828801612966565b91505092959194509250565b60008060408385031215612a2e57612a2d61248f565b5b6000612a3c858286016126d2565b9250506020612a4d858286016126d2565b9150509250929050565b7f4e487b7100000000000000000000000000000000000000000000000000000000600052602260045260246000fd5b60006002820490506001821680612a9e57607f821691505b602082108103612ab157612ab0612a57565b5b50919050565b7f4552433732313a20617070726f76616c20746f2063757272656e74206f776e6560008201527f7200000000000000000000000000000000000000000000000000000000000000602082015250565b6000612b1360218361255f565b9150612b1e82612ab7565b604082019050919050565b60006020820190508181036000830152612b4281612b06565b9050919050565b7f4552433732313a20617070726f76652063616c6c6572206973206e6f7420746f60008201527f6b656e206f776e6572206f7220617070726f76656420666f7220616c6c000000602082015250565b6000612ba5603d8361255f565b9150612bb082612b49565b604082019050919050565b60006020820190508181036000830152612bd481612b98565b9050919050565b7f4552433732313a2063616c6c6572206973206e6f7420746f6b656e206f776e6560008201527f72206f7220617070726f76656400000000000000000000000000000000000000602082015250565b6000612c37602d8361255f565b9150612c4282612bdb565b604082019050919050565b60006020820190508181036000830152612c6681612c2a565b9050919050565b7f455243373231456e756d657261626c653a206f776e657220696e646578206f7560008201527f74206f6620626f756e6473000000000000000000000000000000000000000000602082015250565b6000612cc9602b8361255f565b9150612cd482612c6d565b604082019050919050565b60006020820190508181036000830152612cf881612cbc565b9050919050565b7f455243373231456e756d657261626c653a20676c6f62616c20696e646578206f60008201527f7574206f6620626f756e64730000000000000000000000000000000000000000602082015250565b6000612d5b602c8361255f565b9150612d6682612cff565b604082019050919050565b60006020820190508181036000830152612d8a81612d4e565b9050919050565b7f4e487b7100000000000000000000000000000000000000000000000000000000600052603260045260246000fd5b7f4552433732313a20696e76616c696420746f6b656e2049440000000000000000600082015250565b6000612df660188361255f565b9150612e0182612dc0565b602082019050919050565b60006020820190508181036000830152612e2581612de9565b9050919050565b7f4552433732313a2061646472657373207a65726f206973206e6f74206120766160008201527f6c6964206f776e65720000000000000000000000000000000000000000000000602082015250565b6000612e8860298361255f565b9150612e9382612e2c565b604082019050919050565b60006020820190508181036000830152612eb781612e7b565b9050919050565b7f546f6b656e496420646f6573206e6f7420657869737400000000000000000000600082015250565b6000612ef460168361255f565b9150612eff82612ebe565b602082019050919050565b60006020820190508181036000830152612f2381612ee7565b9050919050565b7f4e487b7100000000000000000000000000000000000000000000000000000000600052601160045260246000fd5b6000612f6482612451565b9150612f6f83612451565b9250828201905080821115612f8757612f86612f2a565b5b92915050565b7f45786365656473206d6178696d756d20746f6b656e206c696d69740000000000600082015250565b6000612fc3601b8361255f565b9150612fce82612f8d565b602082019050919050565b60006020820190508181036000830152612ff281612fb6565b9050919050565b600061300482612451565b91507fffffffffffffffffffffffffffffffffffffffffffffffffffffffffffffffff820361303657613035612f2a565b5b600182019050919050565b600081905092915050565b600061305782612554565b6130618185613041565b9350613071818560208601612570565b80840191505092915050565b6000613089828561304c565b9150613095828461304c565b91508190509392505050565b7f4f776e61626c653a206e6577206f776e657220697320746865207a65726f206160008201527f6464726573730000000000000000000000000000000000000000000000000000602082015250565b60006130fd60268361255f565b9150613108826130a1565b604082019050919050565b6000602082019050818103600083015261312c816130f0565b9050919050565b7f4552433732313a207472616e736665722066726f6d20696e636f72726563742060008201527f6f776e6572000000000000000000000000000000000000000000000000000000602082015250565b600061318f60258361255f565b915061319a82613133565b604082019050919050565b600060208201905081810360008301526131be81613182565b9050919050565b7f4552433732313a207472616e7366657220746f20746865207a65726f2061646460008201527f7265737300000000000000000000000000000000000000000000000000000000602082015250565b600061322160248361255f565b915061322c826131c5565b604082019050919050565b6000602082019050818103600083015261325081613214565b9050919050565b7f4f776e61626c653a2063616c6c6572206973206e6f7420746865206f776e6572600082015250565b600061328d60208361255f565b915061329882613257565b602082019050919050565b600060208201905081810360008301526132bc81613280565b9050919050565b7f4552433732313a206d696e7420746f20746865207a65726f2061646472657373600082015250565b60006132f960208361255f565b9150613304826132c3565b602082019050919050565b60006020820190508181036000830152613328816132ec565b9050919050565b7f4552433732313a20746f6b656e20616c7265616479206d696e74656400000000600082015250565b6000613365601c8361255f565b91506133708261332f565b602082019050919050565b6000602082019050818103600083015261339481613358565b9050919050565b7f4552433732313a20617070726f766520746f2063616c6c657200000000000000600082015250565b60006133d160198361255f565b91506133dc8261339b565b602082019050919050565b60006020820190508181036000830152613400816133c4565b9050919050565b7f4552433732313a207472616e7366657220746f206e6f6e20455243373231526560008201527f63656976657220696d706c656d656e7465720000000000000000000000000000602082015250565b600061346360328361255f565b915061346e82613407565b604082019050919050565b6000602082019050818103600083015261349281613456565b9050919050565b7f4e487b7100000000000000000000000000000000000000000000000000000000600052601260045260246000fd5b7f455243373231456e756d657261626c653a20636f6e736563757469766520747260008201527f616e7366657273206e6f7420737570706f727465640000000000000000000000602082015250565b600061352460358361255f565b915061352f826134c8565b604082019050919050565b6000602082019050818103600083015261355381613517565b9050919050565b600081519050919050565b600082825260208201905092915050565b60006135818261355a565b61358b8185613565565b935061359b818560208601612570565b6135a48161259a565b840191505092915050565b60006080820190506135c46000830187612691565b6135d16020830186612691565b6135de604083018561245b565b81810360608301526135f08184613576565b905095945050505050565b60008151905061360a816124c5565b92915050565b6000602082840312156136265761362561248f565b5b6000613634848285016135fb565b91505092915050565b600061364882612451565b915061365383612451565b925082820390508181111561366b5761366a612f2a565b5b92915050565b7f4e487b7100000000000000000000000000000000000000000000000000000000600052603160045260246000fdfea2646970667358221220688354425271f31774b8361781ce8d2fb348f3fa8fb42c71cac0b988a70498a064736f6c63430008120033516d62795a4b396b5663685547534b70386a474d3672465a42583145317570577475475152346f32436739397a68",
  "linkReferences": {},
  "deployedLinkReferences": {}
}