{
  "_format": "hh-sol-artifact-1",
  "contractName": "FxPortalBridge",
  "sourceName": "contracts/eyes.sol",
  "abi": [
    {
      "anonymous": false,
      "inputs": [
        {
          "indexed": true,
          "internalType": "address",
          "name": "from",
          "type": "address"
        },
        {
          "indexed": true,
          "internalType": "address",
          "name": "to",
          "type": "address"
        },
        {
          "indexed": false,
          "internalType": "uint256",
          "name": "tokenId",
          "type": "uint256"
        },
        {
          "indexed": false,
          "internalType": "string",
          "name": "data",
          "type": "string"
        }
      ],
      "name": "Deposit",
      "type": "event"
    },
    {
      "inputs": [
        {
          "internalType": "string",
          "name": "data",
          "type": "string"
        },
        {
          "internalType": "address",
          "name": "to",
          "type": "address"
        },
        {
          "internalType": "uint256",
          "name": "tokenId",
          "type": "uint256"
        }
      ],
      "name": "deposit",
      "outputs": [],
      "stateMutability": "nonpayable",
      "type": "function"
    }
  ],
  "bytecode": "0x608060405234801561001057600080fd5b50610307806100206000396000f3fe608060405234801561001057600080fd5b506004361061002b5760003560e01c80632a48ac9a14610030575b600080fd5b61004a600480360381019061004591906101be565b61004c565b005b8173ffffffffffffffffffffffffffffffffffffffff163373ffffffffffffffffffffffffffffffffffffffff167fef519b7eb82aaf6ac376a6df2d793843ebfd593de5f1a0601d3cc6ab49ebb3958387876040516100ad9392919061029f565b60405180910390a350505050565b600080fd5b600080fd5b600080fd5b600080fd5b600080fd5b60008083601f8401126100ea576100e96100c5565b5b8235905067ffffffffffffffff811115610107576101066100ca565b5b602083019150836001820283011115610123576101226100cf565b5b9250929050565b600073ffffffffffffffffffffffffffffffffffffffff82169050919050565b60006101558261012a565b9050919050565b6101658161014a565b811461017057600080fd5b50565b6000813590506101828161015c565b92915050565b6000819050919050565b61019b81610188565b81146101a657600080fd5b50565b6000813590506101b881610192565b92915050565b600080600080606085870312156101d8576101d76100bb565b5b600085013567ffffffffffffffff8111156101f6576101f56100c0565b5b610202878288016100d4565b9450945050602061021587828801610173565b9250506040610226878288016101a9565b91505092959194509250565b61023b81610188565b82525050565b600082825260208201905092915050565b82818337600083830152505050565b6000601f19601f8301169050919050565b600061027e8385610241565b935061028b838584610252565b61029483610261565b840190509392505050565b60006040820190506102b46000830186610232565b81810360208301526102c7818486610272565b905094935050505056fea2646970667358221220ba984a4cca0874bc7eab9e73e192d56afa23dc787f6c6d9666912a3bf38d98a664736f6c63430008120033",
  "linkReferences": {},
  "deployedLinkReferences": {}
}